{
  "contractName": "P2PRating",
  "abi": [
    {
      "inputs": [
        {
          "internalType": "address",
          "name": "",
          "type": "address"
        },
        {
          "internalType": "address",
          "name": "",
          "type": "address"
        }
      ],
      "name": "alreadyRated",
      "outputs": [
        {
          "internalType": "bool",
          "name": "",
          "type": "bool"
        }
      ],
      "stateMutability": "view",
      "type": "function",
      "constant": true
    },
    {
      "inputs": [
        {
          "internalType": "address",
          "name": "",
          "type": "address"
        },
        {
          "internalType": "uint256",
          "name": "",
          "type": "uint256"
        }
      ],
      "name": "ratings",
      "outputs": [
        {
          "internalType": "address",
          "name": "byAddress",
          "type": "address"
        },
        {
          "internalType": "string",
          "name": "byEmail",
          "type": "string"
        },
        {
          "internalType": "uint256",
          "name": "timestamp",
          "type": "uint256"
        },
        {
          "internalType": "uint256",
          "name": "rating",
          "type": "uint256"
        }
      ],
      "stateMutability": "view",
      "type": "function",
      "constant": true
    },
    {
      "inputs": [
        {
          "internalType": "address",
          "name": "",
          "type": "address"
        }
      ],
      "name": "registeredAddresses",
      "outputs": [
        {
          "internalType": "bool",
          "name": "",
          "type": "bool"
        }
      ],
      "stateMutability": "view",
      "type": "function",
      "constant": true
    },
    {
      "inputs": [
        {
          "internalType": "string",
          "name": "",
          "type": "string"
        }
      ],
      "name": "registeredEmails",
      "outputs": [
        {
          "internalType": "bool",
          "name": "",
          "type": "bool"
        }
      ],
      "stateMutability": "view",
      "type": "function",
      "constant": true
    },
    {
      "inputs": [
        {
          "internalType": "address",
          "name": "",
          "type": "address"
        }
      ],
      "name": "registeredUsers",
      "outputs": [
        {
          "internalType": "string",
          "name": "name",
          "type": "string"
        },
        {
          "internalType": "string",
          "name": "email",
          "type": "string"
        },
        {
          "internalType": "uint256",
          "name": "totalRatingSum",
          "type": "uint256"
        },
        {
          "internalType": "uint256",
          "name": "avgRating",
          "type": "uint256"
        }
      ],
      "stateMutability": "view",
      "type": "function",
      "constant": true
    },
    {
      "inputs": [
        {
          "internalType": "uint256",
          "name": "",
          "type": "uint256"
        }
      ],
      "name": "users",
      "outputs": [
        {
          "internalType": "address",
          "name": "",
          "type": "address"
        }
      ],
      "stateMutability": "view",
      "type": "function",
      "constant": true
    },
    {
      "inputs": [
        {
          "internalType": "string",
          "name": "_name",
          "type": "string"
        },
        {
          "internalType": "string",
          "name": "_email",
          "type": "string"
        }
      ],
      "name": "register",
      "outputs": [
        {
          "internalType": "bool",
          "name": "",
          "type": "bool"
        }
      ],
      "stateMutability": "nonpayable",
      "type": "function"
    },
    {
      "inputs": [
        {
          "internalType": "address",
          "name": "_user",
          "type": "address"
        },
        {
          "internalType": "uint256",
          "name": "_rating",
          "type": "uint256"
        }
      ],
      "name": "rate",
      "outputs": [
        {
          "internalType": "bool",
          "name": "",
          "type": "bool"
        }
      ],
      "stateMutability": "nonpayable",
      "type": "function"
    },
    {
      "inputs": [],
      "name": "getAllUsers",
      "outputs": [
        {
          "internalType": "address[]",
          "name": "",
          "type": "address[]"
        }
      ],
      "stateMutability": "view",
      "type": "function",
      "constant": true
    },
    {
      "inputs": [
        {
          "internalType": "address",
          "name": "_user",
          "type": "address"
        }
      ],
      "name": "getUserRating",
      "outputs": [
        {
          "components": [
            {
              "internalType": "address",
              "name": "byAddress",
              "type": "address"
            },
            {
              "internalType": "string",
              "name": "byEmail",
              "type": "string"
            },
            {
              "internalType": "uint256",
              "name": "timestamp",
              "type": "uint256"
            },
            {
              "internalType": "uint256",
              "name": "rating",
              "type": "uint256"
            }
          ],
          "internalType": "struct P2PRating.Rating[]",
          "name": "",
          "type": "tuple[]"
        }
      ],
      "stateMutability": "view",
      "type": "function",
      "constant": true
    }
  ],
  "bytecode": "0x608060405234801561001057600080fd5b50611f4a806100206000396000f3fe608060405234801561001057600080fd5b506004361061009e5760003560e01c806350b51e441161006657806350b51e441461019957806376b22eac146101c9578063b624633c146101f9578063c940ae9514610229578063e2842d79146102595761009e565b80630e50cee5146100a35780632a0e54bd146100d6578063365b98b2146101095780633ffbd47f14610139578063460168c314610169575b600080fd5b6100bd60048036038101906100b89190611500565b610277565b6040516100cd9493929190611bca565b60405180910390f35b6100f060048036038101906100eb9190611565565b6103d7565b6040516101009493929190611b1f565b60405180910390f35b610123600480360381019061011e919061164e565b6104dc565b6040516101309190611b04565b60405180910390f35b610153600480360381019061014e91906115e2565b61051b565b6040516101609190611baf565b60405180910390f35b610183600480360381019061017e9190611500565b6107c8565b6040516101909190611b8d565b60405180910390f35b6101b360048036038101906101ae9190611529565b610972565b6040516101c09190611baf565b60405180910390f35b6101e360048036038101906101de9190611500565b6109a1565b6040516101f09190611baf565b60405180910390f35b610213600480360381019061020e9190611565565b6109c1565b6040516102209190611baf565b60405180910390f35b610243600480360381019061023e91906115a1565b6110e1565b6040516102509190611baf565b60405180910390f35b610261611117565b60405161026e9190611b6b565b60405180910390f35b6002602052806000526040600020600091509050806000018054600181600116156101000203166002900480601f0160208091040260200160405190810160405280929190818152602001828054600181600116156101000203166002900480156103235780601f106102f857610100808354040283529160200191610323565b820191906000526020600020905b81548152906001019060200180831161030657829003601f168201915b505050505090806001018054600181600116156101000203166002900480601f0160208091040260200160405190810160405280929190818152602001828054600181600116156101000203166002900480156103c15780601f10610396576101008083540402835291602001916103c1565b820191906000526020600020905b8154815290600101906020018083116103a457829003601f168201915b5050505050908060020154908060030154905084565b600360205281600052604060002081815481106103f357600080fd5b9060005260206000209060040201600091509150508060000160009054906101000a900473ffffffffffffffffffffffffffffffffffffffff1690806001018054600181600116156101000203166002900480601f0160208091040260200160405190810160405280929190818152602001828054600181600116156101000203166002900480156104c65780601f1061049b576101008083540402835291602001916104c6565b820191906000526020600020905b8154815290600101906020018083116104a957829003601f168201915b5050505050908060020154908060030154905084565b600581815481106104ec57600080fd5b906000526020600020016000915054906101000a900473ffffffffffffffffffffffffffffffffffffffff1681565b60008060003373ffffffffffffffffffffffffffffffffffffffff1673ffffffffffffffffffffffffffffffffffffffff16815260200190815260200160002060009054906101000a900460ff16156105a9576040517f08c379a00000000000000000000000000000000000000000000000000000000081526004016105a090611c3d565b60405180910390fd5b6001826040516105b99190611aed565b908152602001604051809103902060009054906101000a900460ff1615610615576040517f08c379a000000000000000000000000000000000000000000000000000000000815260040161060c90611c7d565b60405180910390fd5b60006040518060800160405280858152602001848152602001600081526020016000815250905060016000803373ffffffffffffffffffffffffffffffffffffffff1673ffffffffffffffffffffffffffffffffffffffff16815260200190815260200160002060006101000a81548160ff021916908315150217905550600180846040516106a49190611aed565b908152602001604051809103902060006101000a81548160ff02191690831515021790555080600260003373ffffffffffffffffffffffffffffffffffffffff1673ffffffffffffffffffffffffffffffffffffffff16815260200190815260200160002060008201518160000190805190602001906107259291906113c3565b5060208201518160010190805190602001906107429291906113c3565b5060408201518160020155606082015181600301559050506005339080600181540180825580915050600190039060005260206000200160009091909190916101000a81548173ffffffffffffffffffffffffffffffffffffffff021916908373ffffffffffffffffffffffffffffffffffffffff160217905550600191505092915050565b6060600360008373ffffffffffffffffffffffffffffffffffffffff1673ffffffffffffffffffffffffffffffffffffffff168152602001908152602001600020805480602002602001604051908101604052809291908181526020016000905b8282101561096757838290600052602060002090600402016040518060800160405290816000820160009054906101000a900473ffffffffffffffffffffffffffffffffffffffff1673ffffffffffffffffffffffffffffffffffffffff1673ffffffffffffffffffffffffffffffffffffffff168152602001600182018054600181600116156101000203166002900480601f01602080910402602001604051908101604052809291908181526020018280546001816001161561010002031660029004801561093b5780601f106109105761010080835404028352916020019161093b565b820191906000526020600020905b81548152906001019060200180831161091e57829003601f168201915b505050505081526020016002820154815260200160038201548152505081526020019060010190610829565b505050509050919050565b60046020528160005260406000206020528060005260406000206000915091509054906101000a900460ff1681565b60006020528060005260406000206000915054906101000a900460ff1681565b60003373ffffffffffffffffffffffffffffffffffffffff168373ffffffffffffffffffffffffffffffffffffffff161415610a32576040517f08c379a0000000000000000000000000000000000000000000000000000000008152600401610a2990611cfd565b60405180910390fd5b6000803373ffffffffffffffffffffffffffffffffffffffff1673ffffffffffffffffffffffffffffffffffffffff16815260200190815260200160002060009054906101000a900460ff16610abd576040517f08c379a0000000000000000000000000000000000000000000000000000000008152600401610ab490611c9d565b60405180910390fd5b6000808473ffffffffffffffffffffffffffffffffffffffff1673ffffffffffffffffffffffffffffffffffffffff16815260200190815260200160002060009054906101000a900460ff16610b48576040517f08c379a0000000000000000000000000000000000000000000000000000000008152600401610b3f90611cbd565b60405180910390fd5b600460008473ffffffffffffffffffffffffffffffffffffffff1673ffffffffffffffffffffffffffffffffffffffff16815260200190815260200160002060003373ffffffffffffffffffffffffffffffffffffffff1673ffffffffffffffffffffffffffffffffffffffff16815260200190815260200160002060009054906101000a900460ff1615610c12576040517f08c379a0000000000000000000000000000000000000000000000000000000008152600401610c0990611cdd565b60405180910390fd5b6001821015610c56576040517f08c379a0000000000000000000000000000000000000000000000000000000008152600401610c4d90611c5d565b60405180910390fd5b6005821115610c9a576040517f08c379a0000000000000000000000000000000000000000000000000000000008152600401610c9190611c1d565b60405180910390fd5b6000600260003373ffffffffffffffffffffffffffffffffffffffff1673ffffffffffffffffffffffffffffffffffffffff168152602001908152602001600020604051806080016040529081600082018054600181600116156101000203166002900480601f016020809104026020016040519081016040528092919081815260200182805460018160011615610100020316600290048015610d7f5780601f10610d5457610100808354040283529160200191610d7f565b820191906000526020600020905b815481529060010190602001808311610d6257829003601f168201915b50505050508152602001600182018054600181600116156101000203166002900480601f016020809104026020016040519081016040528092919081815260200182805460018160011615610100020316600290048015610e215780601f10610df657610100808354040283529160200191610e21565b820191906000526020600020905b815481529060010190602001808311610e0457829003601f168201915b50505050508152602001600282015481526020016003820154815250509050600060405180608001604052803373ffffffffffffffffffffffffffffffffffffffff16815260200183602001518152602001428152602001858152509050600360008673ffffffffffffffffffffffffffffffffffffffff1673ffffffffffffffffffffffffffffffffffffffff16815260200190815260200160002081908060018154018082558091505060019003906000526020600020906004020160009091909190915060008201518160000160006101000a81548173ffffffffffffffffffffffffffffffffffffffff021916908373ffffffffffffffffffffffffffffffffffffffff1602179055506020820151816001019080519060200190610f4b9291906113c3565b50604082015181600201556060820151816003015550506001600460008773ffffffffffffffffffffffffffffffffffffffff1673ffffffffffffffffffffffffffffffffffffffff16815260200190815260200160002060003373ffffffffffffffffffffffffffffffffffffffff1673ffffffffffffffffffffffffffffffffffffffff16815260200190815260200160002060006101000a81548160ff0219169083151502179055506000600260008773ffffffffffffffffffffffffffffffffffffffff1673ffffffffffffffffffffffffffffffffffffffff168152602001908152602001600020905061106b611058670de0b6b3a7640000876111a590919063ffffffff16565b826002015461122b90919063ffffffff16565b81600201819055506110cc600360008873ffffffffffffffffffffffffffffffffffffffff1673ffffffffffffffffffffffffffffffffffffffff1681526020019081526020016000208054905082600201546112b390919063ffffffff16565b81600301819055506001935050505092915050565b6001818051602081018201805184825260208301602085012081835280955050505050506000915054906101000a900460ff1681565b6060600580548060200260200160405190810160405280929190818152602001828054801561119b57602002820191906000526020600020905b8160009054906101000a900473ffffffffffffffffffffffffffffffffffffffff1673ffffffffffffffffffffffffffffffffffffffff1681526020019060010190808311611151575b5050505050905090565b6000808314156111b85760009050611225565b60008284029050828482816111c957fe5b0414611220576040517f08c379a0000000000000000000000000000000000000000000000000000000008152600401808060200182810382526021815260200180611ef46021913960400191505060405180910390fd5b809150505b92915050565b6000808284019050838110156112a9576040517f08c379a000000000000000000000000000000000000000000000000000000000815260040180806020018281038252601b8152602001807f536166654d6174683a206164646974696f6e206f766572666c6f77000000000081525060200191505060405180910390fd5b8091505092915050565b60006112f583836040518060400160405280601a81526020017f536166654d6174683a206469766973696f6e206279207a65726f0000000000008152506112fd565b905092915050565b600080831182906113a9576040517f08c379a00000000000000000000000000000000000000000000000000000000081526004018080602001828103825283818151815260200191508051906020019080838360005b8381101561136e578082015181840152602081019050611353565b50505050905090810190601f16801561139b5780820380516001836020036101000a031916815260200191505b509250505060405180910390fd5b5060008385816113b557fe5b049050809150509392505050565b828054600181600116156101000203166002900490600052602060002090601f0160209004810192826113f95760008555611440565b82601f1061141257805160ff1916838001178555611440565b82800160010185558215611440579182015b8281111561143f578251825591602001919060010190611424565b5b50905061144d9190611451565b5090565b5b8082111561146a576000816000905550600101611452565b5090565b600061148161147c84611d4e565b611d1d565b90508281526020810184848401111561149957600080fd5b6114a4848285611e70565b509392505050565b6000813590506114bb81611ec5565b92915050565b600082601f8301126114d257600080fd5b81356114e284826020860161146e565b91505092915050565b6000813590506114fa81611edc565b92915050565b60006020828403121561151257600080fd5b6000611520848285016114ac565b91505092915050565b6000806040838503121561153c57600080fd5b600061154a858286016114ac565b925050602061155b858286016114ac565b9150509250929050565b6000806040838503121561157857600080fd5b6000611586858286016114ac565b9250506020611597858286016114eb565b9150509250929050565b6000602082840312156115b357600080fd5b600082013567ffffffffffffffff8111156115cd57600080fd5b6115d9848285016114c1565b91505092915050565b600080604083850312156115f557600080fd5b600083013567ffffffffffffffff81111561160f57600080fd5b61161b858286016114c1565b925050602083013567ffffffffffffffff81111561163857600080fd5b611644858286016114c1565b9150509250929050565b60006020828403121561166057600080fd5b600061166e848285016114eb565b91505092915050565b600061168383836116a3565b60208301905092915050565b600061169b8383611a6c565b905092915050565b6116ac81611e28565b82525050565b6116bb81611e28565b82525050565b60006116cc82611d9e565b6116d68185611dd9565b93506116e183611d7e565b8060005b838110156117125781516116f98882611677565b975061170483611dbf565b9250506001810190506116e5565b5085935050505092915050565b600061172a82611da9565b6117348185611dea565b93508360208202850161174685611d8e565b8060005b858110156117825784840389528151611763858261168f565b945061176e83611dcc565b925060208a0199505060018101905061174a565b50829750879550505050505092915050565b61179d81611e3a565b82525050565b60006117ae82611db4565b6117b88185611dfb565b93506117c8818560208601611e7f565b6117d181611eb4565b840191505092915050565b60006117e782611db4565b6117f18185611e0c565b9350611801818560208601611e7f565b61180a81611eb4565b840191505092915050565b600061182082611db4565b61182a8185611e1d565b935061183a818560208601611e7f565b80840191505092915050565b6000611853601983611e0c565b91507f526174696e67207570706572206c696d6974206572726f7221000000000000006000830152602082019050919050565b6000611893601a83611e0c565b91507f4164647265737320616c726561647920726567697374657265640000000000006000830152602082019050919050565b60006118d3601883611e0c565b91507f526174696e67206c6f776572206c696d6974206572726f7200000000000000006000830152602082019050919050565b6000611913601883611e0c565b91507f456d61696c20616c7265616479207265676973746572656400000000000000006000830152602082019050919050565b6000611953601a83611e0c565b91507f596f7520617265206e6f742072656769737465726564207965740000000000006000830152602082019050919050565b6000611993602f83611e0c565b91507f54686520757365722077686f6d2075207220726174696e67206973206e6f742060008301527f72656769737465726564207573657200000000000000000000000000000000006020830152604082019050919050565b60006119f9602083611e0c565b91507f596f75206861766520616c7265616479207261746564207468697320757365726000830152602082019050919050565b6000611a39601e83611e0c565b91507f596f752063616e206e6f74207261746520796f757273656c66206865726500006000830152602082019050919050565b6000608083016000830151611a8460008601826116a3565b5060208301518482036020860152611a9c82826117a3565b9150506040830151611ab16040860182611acf565b506060830151611ac46060860182611acf565b508091505092915050565b611ad881611e66565b82525050565b611ae781611e66565b82525050565b6000611af98284611815565b915081905092915050565b6000602082019050611b1960008301846116b2565b92915050565b6000608082019050611b3460008301876116b2565b8181036020830152611b4681866117dc565b9050611b556040830185611ade565b611b626060830184611ade565b95945050505050565b60006020820190508181036000830152611b8581846116c1565b905092915050565b60006020820190508181036000830152611ba7818461171f565b905092915050565b6000602082019050611bc46000830184611794565b92915050565b60006080820190508181036000830152611be481876117dc565b90508181036020830152611bf881866117dc565b9050611c076040830185611ade565b611c146060830184611ade565b95945050505050565b60006020820190508181036000830152611c3681611846565b9050919050565b60006020820190508181036000830152611c5681611886565b9050919050565b60006020820190508181036000830152611c76816118c6565b9050919050565b60006020820190508181036000830152611c9681611906565b9050919050565b60006020820190508181036000830152611cb681611946565b9050919050565b60006020820190508181036000830152611cd681611986565b9050919050565b60006020820190508181036000830152611cf6816119ec565b9050919050565b60006020820190508181036000830152611d1681611a2c565b9050919050565b6000604051905081810181811067ffffffffffffffff82111715611d4457611d43611eb2565b5b8060405250919050565b600067ffffffffffffffff821115611d6957611d68611eb2565b5b601f19601f8301169050602081019050919050565b6000819050602082019050919050565b6000819050602082019050919050565b600081519050919050565b600081519050919050565b600081519050919050565b6000602082019050919050565b6000602082019050919050565b600082825260208201905092915050565b600082825260208201905092915050565b600082825260208201905092915050565b600082825260208201905092915050565b600081905092915050565b6000611e3382611e46565b9050919050565b60008115159050919050565b600073ffffffffffffffffffffffffffffffffffffffff82169050919050565b6000819050919050565b82818337600083830152505050565b60005b83811015611e9d578082015181840152602081019050611e82565b83811115611eac576000848401525b50505050565bfe5b6000601f19601f8301169050919050565b611ece81611e28565b8114611ed957600080fd5b50565b611ee581611e66565b8114611ef057600080fd5b5056fe536166654d6174683a206d756c7469706c69636174696f6e206f766572666c6f77a2646970667358221220915ee2689e29af225d7456f577a9ef4d72926fdfeffa873cffbcb963de4beaf164736f6c63430007060033",
  "immutableReferences": {},
  "source": "pragma solidity >=0.7.0;\npragma experimental ABIEncoderV2;\n\nimport \"@openzeppelin/contracts/math/SafeMath.sol\";\n\ncontract P2PRating {\n   \n    using SafeMath for uint256;\n    struct User {\n        string name;\n        string email;\n        uint totalRatingSum;\n        uint avgRating;\n    }\n   \n    struct Rating {\n        address byAddress;\n        string byEmail;\n        uint timestamp;\n        uint rating;\n    }\n   \n    mapping(address => bool) public registeredAddresses;\n    mapping(string => bool) public registeredEmails;\n    mapping(address => User) public registeredUsers;\n    mapping(address => Rating[]) public ratings;\n    mapping(address => mapping(address => bool)) public alreadyRated;\n    address[] public users;\n   \n    function register(string memory _name, string memory _email) public returns(bool) {\n        require(!registeredAddresses[msg.sender], \"Address already registered\");\n        require(!registeredEmails[_email], \"Email already registered\");\n       \n        User memory u = User({\n            name:_name,\n            email:_email,\n            avgRating:0,\n            totalRatingSum:0\n        });\n       \n        registeredAddresses[msg.sender] = true;\n        registeredEmails[_email] = true;\n        registeredUsers[msg.sender] = u;\n        users.push(msg.sender);\n       \n        return true;\n    }\n   \n    function rate(address _user, uint _rating) public returns(bool) {\n        require(_user != msg.sender, \"You can not rate yourself here\");\n        require(registeredAddresses[msg.sender], \"You are not registered yet\");\n        require(registeredAddresses[_user], \"The user whom u r rating is not registered user\");\n        require(!alreadyRated[_user][msg.sender], \"You have already rated this user\");\n        require(_rating >= 1, \"Rating lower limit error\");\n        require(_rating <= 5, \"Rating upper limit error!\");\n       \n        User memory u = registeredUsers[msg.sender];\n        Rating memory r = Rating({\n            byAddress: msg.sender,\n            byEmail: u.email,\n            timestamp: block.timestamp,\n            rating: _rating\n        });\n       \n        ratings[_user].push(r);\n       \n        alreadyRated[_user][msg.sender] = true;\n        User storage u1 = registeredUsers[_user];\n        u1.totalRatingSum = u1.totalRatingSum.add(_rating.mul(10**18));\n        u1.avgRating = u1.totalRatingSum.div(ratings[_user].length);\n       \n        return true;\n    }\n\n    function getAllUsers() public view returns(address[] memory) {\n        return users;\n    }\n\n    function getUserRating(address _user) public view returns(Rating[] memory) {\n        return ratings[_user];\n    }\n   \n}",
  "sourcePath": "/home/kuldeep/ETHEREUM/dock/contracts/P2PRating.sol",
  "compiler": {
    "name": "solc",
    "version": "0.7.6+commit.7338295f.Emscripten.clang"
  },
  "schemaVersion": "3.2.5",
  "updatedAt": "2021-01-02T11:11:53.321Z",
  "networkType": "ethereum",
  "devdoc": {
    "kind": "dev",
    "methods": {},
    "version": 1
  },
  "userdoc": {
    "kind": "user",
    "methods": {},
    "version": 1
  }
}